:020000040800F2
:10000000F8300020450100083324000825210008AD
:10001000312400083F0F00082533000800000000CD
:10002000000000000000000000000000852C000817
:100030003D1300080000000041290008692D000858
:100040005F0100085F0100085F0100085F01000810
:100050005F0100085F010008D11B00085F01000874
:100060005F0100085F0100085F0100085F010008F0
:100070005F010008391100085F0100085F010008F6
:100080005F0100085F0100085F0100085F010008D0
:100090005F0100085F0100085F0100085F010008C0
:1000A0005F0100085F0100085F0100085F010008B0
:1000B0005F0100085F010008D12D00085F01000802
:1000C0005F0100085F0100085F0100085F01000890
:1000D0005F010008313000084D3100085F01000861
:1000E0001D1C00085F0100085F0100085F01000897
:1000F0005F0100085F0100085F0100085F01000860
:100100005F0100085F0100085F0100085F0100084F
:100110005F0100085F0100085F0100085F0100083F
:100120005F0100085F0100085F0100085F0100082F
:10013000DFF80CD000F0F0FC00480047293E000832
:10014000F83000200648804706480047FEE7FEE7F3
:10015000FEE7FEE7FEE7FEE7FEE7FEE7FEE7FEE777
:10016000812D0008310100080048704738670008F9
:1001700010B50446FFF7F8FF0068005D00F00100CD
:1001800010BD40EA01039B0703D009E008C9121F14
:1001900008C0042AFAD203E011F8013B00F8013B41
:1001A000521EF9D27047D2B201E000F8012B491E6D
:1001B000FBD270470022F6E710B513460A46044604
:1001C0001946FFF7F0FF204610BD30B505462A4618
:1001D0000B4612F8010B13F8014B08B1A042F8D0FE
:1001E0001CB1002802D06D1CF1E7284630BD421C2E
:1001F00010F8011B0029FBD1801A7047CBB203E035
:100200000178994203D0401C521EF9D20020704759
:1002100030B504460020034600E05B1C934203D245
:10022000E05CCD5C401BF8D030BD2DE9F047914635
:100230000F4680460446002614F8015B2DB1FFF7F7
:1002400093FF0068405DC007F6D12B2D02D02D2D05
:1002500018D0641E4A463946204600F013FB27B1E9
:100260003968A14201D1C7F8008071054FF002043E
:100270000BD54042002803DD03F0A6F80460A00778
:10028000BDE8F08746F48066E4E70028F8DA03F07A
:100290009BF804606FF00040F2E7F0B480EA0102DE
:1002A000D40F4200B2EB410F02D20246084611467B
:1002B0004A0042D0C30DDDB2C1F3C752AD1A202DA2
:1002C00035DAC1F3160141F4000204B15242C5F11E
:1002D000200602FA06F12A411044B3EBD05F23D086
:1002E000C4B1012DA0EBC35009DCF0BC4FF00042BB
:1002F00002EAC352DBB200F5000000F06ABB400026
:1003000000F1807000EBC350A0F1807040EAD17022
:10031000490009E0490841EAC071A0EBC35000F56B
:100320000000400800EBC350F0BC00F049BB614244
:10033000012202EB4101001BF6E7F0BC704781F09F
:100340000041AAE780F00040A7E72DE9FE4F804674
:1003500081EA0300C00F0C46009021F0004123F019
:100360000045B8EB0200A94105D24046214690461F
:100370001C460B46024623F00040104347D0270D91
:10038000C7F30A00C3F30A510290401A01904028B3
:100390006BDAC3F3130040F4801B0098924620B13F
:1003A0000023D2EB030A63EB0B0B01985946C0F113
:1003B0004002504600F035FA06460D465046594672
:1003C000019A00F04DFA10EB08006141002487EA21
:1003D000115284EAE7731A4340D0009A62B3019A3B
:1003E000012A4FEA075215DC001B61EB02014FF0B6
:1003F000004202EA0752CDE90042001C41F580119B
:1004000032462B4600F022FB03B0BDE8F08F404699
:100410002146F9E7001B61EB0201001C41F5801346
:1004200000185B412018A2F5001747EB030140EAD2
:10043000D570B6196D4111E06D084FEA360645EAF0
:10044000C0754FEA0752001B61EB0201001C41F529
:10045000801149084FEA30000019514132462B46BD
:1004600003B0BDE8F04F00F0E2BA0098012240006E
:100470000023D0EB020263EBE073009821464FEAC1
:10048000E074B8EB000061EB0401E9E783F000439E
:100490005BE781F0004158E72DE9FE4F81EA030454
:1004A00004F0004421F0004100944FF0000B23F0D1
:1004B000004350EA01045ED052EA03045BD0C3F368
:1004C0000A54C1F30A552C44A4F2F3340194A0FB5E
:1004D0000254C1F3130141F48011C3F3130343F435
:1004E000801301FB024400FB034E840A970A44EA8E
:1004F000815447EA8357A4FB076802958D0A05FBE0
:1005000007854FEA932C04FB0C542705029D4FEA04
:10051000065847EA1637B5EB08056EEB070C870E51
:10052000920E47EA811742EA8312A7FB0201B6EB5B
:100530000B0164EB00042B0D43EA0C335E1844EB13
:100540001C50DA465146E7FB0201C5F313044FEA9B
:100550000B3343EA14534FEA0432019C43EA060387
:10056000A4F10C040294009CCDE900B400F06EFAF2
:1005700003B0BDE8F08F00200146F9E72DE9F04D0A
:1005800081EA030404F0004B21F0004514464FF0CB
:10059000000A23F0004150EA050220D054EA01028B
:1005A0001DD0C5F30A570246C5F31303C1F3130068
:1005B000C1F30A5640F4801543F48013A7EB0608F4
:1005C000101BD64608F2FD3873EB050002D308F184
:1005D000010801E092185B41B8F1000F03DA002036
:1005E0000146BDE8F08D00204FF480110646844698
:1005F0000EE0171B73EB050705D3121B63EB050316
:1006000006434CEA010C49084FEA300092185B415E
:1006100050EA0107EDD152EA030012D082EA040049
:1006200083EA0501084305D0101BAB4106D2012225
:10063000002306E000224FF0004302E06FF00102C9
:1006400053101AEB06004CEB085110EB0A0041EB7B
:100650000B01BDE8F04D00F0EAB9962300221146E7
:1006600000F0B7B90EB5C10F80EAE0700844CA07C0
:10067000002140F233438DE80E000A460B4600F09D
:10068000E5F903B000BD0EB540F2334102910021FF
:10069000CDE900110A460B4600F0D8F903B000BDC1
:1006A00020F00040C10DC0F3160040F400007F2987
:1006B00001DA00207047962903DCC1F19601C84099
:1006C000704796398840704770B5C1F30A5201F0FF
:1006D00000450024C1F3130140F2FF3341F48011BF
:1006E0009A4201DA002070BD40F233439A42A2F2EE
:1006F000334203DC524200F0A3F800E090402C4368
:10070000F1D0404270BD00F0004230F000400AD00D
:10071000C10D01F56071C0F3160042EA0151C20833
:1007200040071143704700200146704730B5041E52
:1007300071F1000404DB4FF00044404264EB01011E
:10074000141E73F1000405DB1C464FF000435242B7
:1007500063EB0403994208BF904230BD01F00043AF
:1007600030B421F0004150EA010206D00A0DA2F592
:100770006072C1F31301002A02DC30BC0020704714
:10078000440F44EAC104C100E01830BC00EBC25081
:1007900000F016B930B50B46014600202022012496
:1007A00009E021FA02F59D4205D303FA02F5491B3F
:1007B00004FA02F52844151EA2F10102F1DC30BD55
:1007C0002DE9F05F0546002092469B468846064686
:1007D000814640241BE0284641464746224600F019
:1007E0002FF853465A46C01A914110D31146184665
:1007F000224600F016F82D1A67EB01084F462246F4
:100800000120002100F00DF817EB00094E41201ED9
:10081000A4F10104DFDC484631462A464346BDE8E0
:10082000F09F202A04DB203A00FA02F100207047F2
:100830009140C2F1200320FA03F31943904070471E
:10084000202A04DB203A21FA02F00021704721FA25
:1008500002F3D040C2F1200291400843194670478C
:10086000202A06DBCB17203A41FA02F043EAE07374
:1008700006E041FA02F3D040C2F120029140084361
:10088000194670472DE9F05F82460078002715462B
:100890008B460AF10104B946302801D09DB113E01E
:1008A00014F8010B0127782803D0582801D045B14E
:1008B0000AE00DB1102D07D10027102514F8010B07
:1008C00002E0082500E00A250026B0460EE005FB00
:1008D000080005FB06F1012701EB10461FFA80F81E
:1008E000B6F5803F00D3B94614F8010B294600F055
:1008F00025F90028EBDABBF1000F05D00FB1641E1B
:1009000000E05446CBF80040B9F1000F06D002F0E9
:100910005BFD02210160C81EBDE8F09F48EA064069
:10092000FAE700000FB4002300B589B00CA90091CC
:100930000B996FF00042CB601E4B06931E4B079342
:100940000423CDE901321D4A089202466B4600207D
:1009500000F082F909B05DF814FB70B586B0064668
:100960004FF0FF300091CDE90101002015460C4603
:1009700004903246694604A8FFF7D4FF0346049862
:10098000211825B108B10A4600E022462A60002855
:100990000DD0002B02DD0098884208D0081B00947F
:1009A000CDE901043246694604A8FFF7BBFF06B053
:1009B00070BD0000910E0008AF0E00087101000824
:1009C0000029A8BF7047401C490008BF20F0010063
:1009D000704710B4B0FA80FC00FA0CF050EA010441
:1009E00004BF10BC704749B1CCF1200421FA04F4D3
:1009F00011FA0CF118BF012121430843A3EB0C01AC
:100A0000CB1D4FEA00614FEA102042BF002010BC0E
:100A1000704700EBC35010440029A4BF10BC7047BE
:100A2000401C490008BF20F0010010BC704710B501
:100A3000141E73F1000408DA401C41F10001921801
:100A40005B411A4301D120F0010010BD2DE9F04DAA
:100A500092469B4611B1B1FA81F202E0B0FA80F2FF
:100A600020329046FFF7DDFE04460F4640EA0A00BA
:100A700041EA0B0153465A46084313D0114653EA44
:100A8000010019D0C8F140025046FFF7D9FE0546D3
:100A90000E46504659464246FFF7C3FE084305D06E
:100AA000012004E020463946BDE8F08D00200543D2
:100AB00046EAE0762C4337430A986305E40AA0EB44
:100AC00008000022FD0A44EA47540A3002D50020FB
:100AD0000146E9E7010510196941DDE908450019FA
:100AE0006941BDE8F04DA2E7C1F30A52C1F3130119
:100AF00040F2FF3341F480119A4202DA00200146AD
:100B0000704740F233439A42A2F2334202DC52422F
:100B1000FFF796BEFFF785BE064C074D06E0E0687E
:100B200040F0010394E8070098471034AC42F6D334
:100B3000FFF702FB8C680008AC6800083A2800D276
:100B4000303820F02002412A01D3A2F13700884238
:100B500001D34FF0FF3070472DE9FF4F087881B087
:100B60009946FF2805D0491C2D2804D000240023D5
:100B700008E000230BE00124F9E703EB830300EB1B
:100B80004303491C0878FF28F7D104B15B420020D9
:100B90000090147801462D2C01D02B2C04D1521C2E
:100BA0002D2C12D00024009400251678FF2E0ED094
:100BB0000A24A0FB04C801FB0481002700FB0711E5
:100BC000521C16EB0C006941EFE70124EBE7994456
:100BD00050EA01020ED00024AA4D2646DFF8A88272
:100BE00000F076F982468B46B9F1000009DAC9F1C6
:100BF00000071BE001980021C0E9001105B0BDE825
:100C0000F08F074612E0F80707D022462B46304601
:100C10004146FFF741FC0646884622462B461046D1
:100C20001946FFF739FC04460D467F10002FEAD124
:100C3000B9F1000F324643465046594602DAFFF7F3
:100C40009DFC01E0FFF728FC009A0AB181F0004109
:100C5000019AC2E90001D1E72DE9FF4F1F468DB08F
:100C6000D7E901464FF0FF382E2045464FF00009E6
:100C70000B90B9696D1C0E988847396A824688477F
:100C80000028F6D1BAF1FF3F0AD024F4D064002E38
:100C900011DDBAF12B0F08D0BAF12D0F0BD102E004
:100CA000404611B0ABE744F48064B9696D1C0E98FE
:100CB00088478246761E6946600501D52D2000E0F2
:100CC0002B208DF8000001F1010B0DF1200809E047
:100CD000B9696D1C0E98884782460F9844F40074D9
:100CE000761E0560002E02DDBAF1300FF0D00B99B0
:100CF0008A453ED144F0800406E00F99681CA9F1B2
:100D0000010944F400740860B9696D1C761E0E98E0
:100D1000884782463028F0D02BE00B998A4505D1D0
:100D2000200603D444F08004761E18E0504602F0FA
:100D300011FC08B30DF11301761E44F400748B45C9
:100D400008D2AAF130000BF8010B200607D5A9F153
:100D5000010003E0200602D409F101008146A0054C
:100D600002D50F99681C0860B9696D1C0E988847F8
:100D70008246002ED1DC53E0002E51DDBAF1650F22
:100D800002D0BAF1450F4BD1A00549D5B9696D1C08
:100D900024F44074761E0E9888478246002E0CDD9F
:100DA0002B2804D0BAF12D0F07D144F48074B9690F
:100DB0006D1C0E9888478246761EE00501D52D21D0
:100DC00000E02B2108F8011BCDF82C8021E00DF16B
:100DD0002901761E44F4007488450CD2AAF1300033
:100DE00010F0FF0088F8000002D10B99884509D95E
:100DF00008F1010806E0E00501D5244801E042F2CF
:100E00000F708146B9696D1C0E98884782460F980D
:100E10000560002E04DD504602F09CFB0028D6D170
:100E2000F9690E988847FF208BF8000088F80000C9
:100E30000020069007904B466A4608A906A8FFF7CF
:100E40008BFEA00502D46FF001002AE714F0240FF6
:100E50000AD0E00714D1DDE906123868031D3B60B3
:100E60000068C0E900120BE0DDE90601FFF776FC3F
:100E70000146E00704D13868021D3A60006801604D
:100E800028460EE7000024400000F03FF1D8FFFFA5
:100E9000426842B1016811F8013B23B1521EC0E91A
:100EA0000012184670470121C160881E70474268D1
:100EB0005AB1C368016843B983688B4205D0491EA3
:100EC000521CC0E90012002070474FF0FF307047FD
:100ED0000EB540F2334202920022CDE900221346C1
:100EE000FFF7B4FD03B000BD70B58C1810F8015BBE
:100EF00015F0070301D110F8013B2A1106D110F8B3
:100F0000012B03E010F8016B01F8016B5B1EF9D1B6
:100F10002B0705D40023521E0DD401F8013BFAE73C
:100F200010F8013BCB1A921C03E013F8015B01F8A7
:100F3000015B521EF9D5A142D8D3002070BDFEE757
:100F40000648016841F08071016005480021416058
:100F5000016841F00101016070470000FCED00E014
:100F6000001000E00148406870470000001000E0F9
:100F700001B50022FFF7E4FF0D480E490068B0FB01
:100F8000F1F300984343FFF7EDFF0146FFF7EAFF57
:100F90008842FBD003D9A0EB01010A4403E06FEAC9
:100FA000010101440A4401469A42EFD308BD000002
:100FB0000000002040420F0008B50121042001F08C
:100FC000DDFC2020ADF8000010208DF80300032088
:100FD0008DF802006946024800F08EFF08BD00004F
:100FE0000008014010B5FFF7E7FFBDE810402021E1
:100FF000014800F0DDBF00000008014008B52020D6
:10100000ADF8000048208DF803006946014800F063
:1010100073FF08BD0008014008B52020ADF80000AE
:1010200010208DF8030003208DF802006946024865
:1010300000F062FF08BD0000000801402DE9F0410A
:1010400000250024144F01262021384600F0A7FF78
:101050000028F9D02820FFF78BFF2021384600F028
:101060009EFF01280BD0C4F1070006FA00F085436B
:10107000641CE4B2082CE7D32846BDE8F0812021A7
:10108000384600F08CFF0128F9D0C4F1070006FAB9
:1010900000F0C0B20543EBE70008014070B504461C
:1010A000FFF7BAFF234D2021284600F07FFF44F2CE
:1010B0005060FFF75DFF2021284600F079FF1E20D9
:1010C000FFF756FFFFF79AFF2021284600F067FF41
:1010D00008B1002070BD2021284600F060FF0028E4
:1010E000F9D02021284600F05AFF0128F9D0FFF757
:1010F000A5FF2070FFF7A2FF6070FFF79FFFA070B1
:10110000FFF79CFFE070FFF799FF2071FFF784FF66
:101110002021284600F04CFF20786178E2780844CE
:10112000A178114408442179884201D1012070BD81
:10113000002070BD0008014000F090BFC10002D542
:101140000249086070470249486070470404024041
:1011500000000240002904D0016841F00101016053
:10116000704701684FF6FE72114001607047000041
:1011700001684FF6FE72114001600021016041607C
:101180008160C1603649364A0839904204D14868C6
:1011900040F00F0048607047314A1432904204D149
:1011A000486840F0F000486070472D4A283290426D
:1011B00004D1486840F4706048607047284A3C3267
:1011C000904204D1486840F4704048607047244A17
:1011D0005032904204D1486840F470204860704713
:1011E0001F4A6432904204D1486840F4700048605D
:1011F00070471B4A7832904204D1486840F07060D2
:1012000048607047174A111F904204D1086840F0A7
:101210000F0008607047134A1432904204D10868E6
:1012200040F0F000086070470E4A2832904204D126
:10123000086840F47060086070470A4A3C32904287
:1012400004D1086840F4704008607047054A503285
:101250009042FAD1086840F470200860704700009E
:10126000080002400804024002460020D10002D5D6
:101270000449096801E004490968114200D00120CD
:10128000704700000004024000000240002A03D022
:1012900002680A430260704702688A43026070472E
:1012A00030B5026847F6F0739A430C6A8B682343A3
:1012B000D1E904452C4323438C692343CC69234360
:1012C0004C6A23438C6A234313430360CA68426019
:1012D0000A6882604968C16030BD416070470000A3
:1012E00010B58CB00121084601F02CFB104C2046B3
:1012F000FFF73EFF0F4801900F4802901020039027
:101300000021049105918020069007910891099190
:1013100080010A900B9101A92046FFF7C1FFA004AC
:10132000FFF70CFF01212046FFF714FF0CB010BDA2
:101330008000024004440040F6070020704700008F
:1013400010B5074C206001F011FD20680028FDD188
:101350004FF0E020016921F00101016110BD0000A2
:1013600058000020F8B506460D461446642236A102
:1013700036A000F089FB08B10120F8BD642236A137
:1013800036A000F081FB08B10220F8BD642232A132
:1013900035A000F079FB08B10320F8BD002211460A
:1013A00035A000F071FB08B10420F8BD0022114601
:1013B00035A000F069FB08B10520F8BDFF213648D3
:1013C000FEF7F8FE2B46324634A13348009401F074
:1013D000C3FF4FF47A7422461FA12F4800F054FB3C
:1013E00008B10620F8BD40F6B83236A139A000F0A9
:1013F0004BFB08B10720F8BDFF212748FEF7DAFEB6
:101400002A4643A1244801F0A7FF224645A12248CD
:1014100000F03AFB08B10820F8BDFF211E48FEF796
:10142000C9FE2B46324643A11B4801F095FF2246D8
:101430004AA1194800F028FB08B10920F8BD4CA0CA
:1014400001F07AFF0020F8BD3A20310041542B43CF
:10145000474154543F0000004F4B000041542B5172
:10146000494143543F00000041542B5149444541F8
:1014700043543D310000000041542B514D54434C26
:101480004F53453D3000000041542B514D544449C9
:1014900053433D30000000002F06002041542B51E3
:1014A0004D544346473D22414C4941555448222C16
:1014B000302C222573222C222573222C22257322E4
:1014C0000D0A00002B514D544F50454E3A20302C00
:1014D0003000000041542B514D544F50454E3D308B
:1014E0002C22696F742D61732D6D7174742E636E6F
:1014F0002D7368616E676861692E616C6979756EBC
:1015000063732E636F6D222C313838330000000076
:1015100041542B514D54434F4E4E3D302C22257398
:10152000220D0A002B514D54434F4E4E3A20302C81
:10153000302C300041542B514D545355423D302CEA
:10154000312C222F25732F25732F757365722F670A
:101550006574222C30200D0A000000002B514D54E0
:101560005355423A20302C312C302C3100000000F1
:10157000C9E8B1B8D2D1BEADC1ACBDD3B5BDB0A282
:10158000C0EFD4C62CD7BCB1B8B7A2CBCDCAFDBE74
:10159000DD205B2E2E5D0D0A00000000FFF7E2BE8D
:1015A00010B500F0BBFA0446200006D0FD2810D08C
:1015B000FE280AD0FF2813D103E00AA001F0BCFEE8
:1015C0000EE00DA001F0B8FE0AE013A001F0B4FE99
:1015D00006E018A001F0B0FE1A491BA001F0ACFE15
:1015E000204610BD3447C4A3BFE9D7D4BCECB3C96F
:1015F000B9A60D0A00000000D5FDD4DAC1ACBDD3F8
:10160000B5BD3447C4A3BFE92CC7EBC9D4B5C82EB8
:101610002E2E0D0A00000000D5FDD4DABCECB2E29B
:10162000B5BD53494DBFA82CC7EBC9D4B5C82E2EA4
:101630000D0A0000D7A2B2E1CDF8C2E7D6D02E2E17
:101640002E0D0A0030050020B5B1C7B0D0C5BAC50F
:10165000D6B5A3BA257300002DE9F04F8BB08246B2
:101660008B46A848FFF71AFDA64E012807D1F0784F
:101670000090B37872783178A3A001F05DFEFF216D
:10168000B048FEF797FD5B465246AFA1AD4801F06A
:1016900063FE6422BBA1AB4800F0F6F918B101204B
:1016A0000BB0BDE8F08FF078FEF7EDFFB64FDFF836
:1016B000DC823A464346FEF7EFFE04460D46B0781C
:1016C000FEF7E1FF22462B46FEF73FFEDFF834929D
:1016D00004460D46C9E90201FF219A48FEF76AFD5A
:1016E00022462B46AAA1974801F036FE0022114659
:1016F000944800F0C9F908B10220D1E740F2DC5467
:101700002246ACA11A2000F0BFF908B10320C7E7B8
:10171000FF218C48FEF74EFD5B4652468AA1894860
:1017200001F01AFE642297A1864800F0ADF908B1D5
:101730000120B5E77078FEF7A6FF3A464346FEF76C
:10174000ABFE074688463078FEF79DFF3A46434693
:10175000FEF7FBFD05460E46C9E90401FF21794865
:10176000FEF728FD2A46334693A1764801F0F4FDA2
:1017700000221146734800F087F908B102208FE774
:10178000A04642468BA11A2000F07EF908B1032042
:1017900086E7924806C808461146FEF7DFFF079025
:1017A0008F4806C808461146FEF7D8FF08908D48B6
:1017B00006C808461146FEF7D1FF099001208DF8B2
:1017C0002800FF215F48FEF7F5FC5B4652465EA10C
:1017D0005C4801F0C1FD64226AA15A4800F054F946
:1017E00008B101205CE7FF215648FEF7E3FC0798AB
:1017F000FEF789FF04460D460898FEF784FF06466B
:101800000F460998FEF77FFFCDE904459DF8282093
:10181000009202460B46CDE902677349494801F040
:101820009BFD00221146474800F02EF908B1022026
:1018300036E742465FA11A2000F026F908B10320DE
:101840002EE7FF213F48FEF7B5FC5B4652463EA11E
:101850003C4801F081FD64224AA13A4800F014F9A5
:1018600008B101201CE7FF213648FEF7A3FC5F48C2
:101870005FA10CC8334801F06FFD002211463148CA
:1018800000F002F908B102200AE7424649A11A20F5
:1018900000F0FAF808B1032002E7FF212948FEF71B
:1018A00089FC5B46524628A1264801F055FD64227A
:1018B00034A1244800F0E8F808B10120F0E6FF2147
:1018C0002048FEF777FC514851A102681D4801F0FD
:1018D00043FD002211461B4800F0D6F808B1022053
:1018E000DEE6424633A11A2000F0CEF808B103200C
:1018F000D6E64DA001F020FD6420FFF721FD002079
:10190000CEE60000600000200D0AB6C1C8A1444820
:10191000543131B3C9B9A6210D0A0D0ACAAAB6C8F5
:10192000CEAA25642E256420A3A5524820A3ACCEC0
:10193000C2B6C8CEAA2025642E2564A1E6200D0AD1
:10194000000000002F06002041542B514D545055EB
:10195000423D302C302C302C302C222F7379732FB9
:1019600025732F25732F7468696E672F6576656EF2
:10197000742F70726F70657274792F706F73742228
:101980000D0A00003E0000009A9999999999B93F73
:101990007B706172616D733A7B43757272656E74B0
:1019A00054656D70657261747572653A252E326684
:1019B0007D7D00004F4B00007B706172616D733A5A
:1019C0007B52656C617469766548756D696469748C
:1019D000793A252E32667D7D00000000400000200F
:1019E00038000020480000203C670008500000201C
:1019F0007B706172616D733A7B5665685370656583
:101A0000643A252E33667D7D000000002C00002006
:101A10007B706172616D733A7B6D616E6E756D6224
:101A200065723A25647D7D00CFB5CDB3CAFDBEDDBC
:101A3000B7A2CBCDB3C9B9A620205B4F4B5D0D0A31
:101A40000000000010B50146002409480088020487
:101A50000CD5084BC0F30E0000221A541846FEF7AE
:101A6000B4FB0446034904A001F066FC204610BD07
:101A70007A000020F60B00204154434D443C2D0DCC
:101A80000A2025730D0A00002DE9F047814688469B
:101A900014460027184D00262E80B9F1FF0F08D8F4
:101AA0001648D0F884100029FBD11548A0F8009002
:101AB00003E0494613A004F0D3F9494613A001F00E
:101AC0003BFCB8F1000F12D05CB910E00A20FFF720
:101AD00037FC2888000404D54046FFF7B3FF20B93F
:101AE0002E80641E2404240CF0D104B901272E801A
:101AF0003846BDE8F08700007A0000200000024070
:101B00000444004025730D0A000000004154434D79
:101B1000442D3E0D0A2025730D0A000010B5FF214B
:101B20001A48FEF747FB642219A11AA0FFF7ACFF81
:101B300038B1642216A117A0FFF7A6FF08B1FF2055
:101B400010BD4FF4C874224614A116A0FFF79CFFE5
:101B500008B1FE2010BD224615A116A0FFF794FF84
:101B600020B117A11748FEF730FB08B1002010BDC7
:101B7000C82207A114A0FFF787FF20B91149034825
:101B8000B1F80F100180FD2010BD000030050020CD
:101B90004F4B000041544531000000005245414484
:101BA0005900000041542B4350494E3F00000000B3
:101BB000302C310041542B435245473F0000000078
:101BC000302C3500F60B002041542B4353510000BC
:101BD00010B5012000F050F8002810D00848016826
:101BE00081F02001016007480168491C016006A0DE
:101BF00001F0A2FBBDE81040012000F037B810BD95
:101C00000C0C01402C000020B5B1C7B0B3B5C4DA4C
:101C1000C8CBCAFDA3BA25640A00000010B54FF472
:101C20000054204600F028F8002810D00849086821
:101C300080F001000860074A1168491E116006A083
:101C400001F07AFB2046BDE8104000F00FB810BD4F
:101C50000C0C01402C000020B5B1C7B0B3B5C4DAFC
:101C6000C8CBCAFDA3BA25640A0000000149086078
:101C7000704700001404014001460020054A126824
:101C80000A40044B14331B680B4202D0002A00D0D8
:101C9000012070470004014030B51B4A8379016878
:101CA000002B2AD013688B431360111D0B68046846
:101CB000A3430B60017911440B68046823430B6054
:101CC000114C08342168036899432160231D196869
:101CD0000568A94319604179102905D011440A68A3
:101CE000006802430A6030BD216802681143216028
:101CF000196800680143196030BD0079104402681A
:101D00008A43026030BD0000000401402DE9FE431B
:101D10000121052000F032FE00F0C8FB0124ADF8DF
:101D2000084004278DF80B7002A9164800F0E4F86B
:101D30000021084600F0CCF800944FF000088DF820
:101D400004800C258DF805508DF806406846FFF795
:101D5000A3FF6603ADF808608DF80B7002A90A486E
:101D600000F0CAF80D21022000F0B2F800968DF8BC
:101D700004808DF805508DF806406846FFF78CFF0B
:101D8000BDE8FE8300080140001001402DE9F04746
:101D90000F46002A70D00C2A6ED806684468856801
:101DA000C168D0F81090D0F814A0BBB301EB0208C2
:101DB000B8F1180F19D3A8F11808012C16D0032C6C
:101DC00014D0052C12D0072C10D0082C0ED00A2CC1
:101DD0000CD0042C11D0062C0FD0092C0DD00B2CBC
:101DE0000BD0022C10D00C2C1CD066E01F2D01D281
:101DF0006D1C62E00125641C5FE01E2D01D26D1C8C
:101E00005BE00125641C58E01D2D08D01C2D03D17A
:101E1000F0B200F0C7FA10B16D1C4EE00AE00125E7
:101E200003244AE01F2D01D26D1C46E00125012448
:101E3000761C42E0914202D3A1EB02083DE0A1EB07
:101E4000020808F11808022C17D0042C15D0062C13
:101E500013D0082C11D0092C0FD00B2C0DD0052C31
:101E600012D0072C10D00A2C0ED00C2C0CD0032C26
:101E700011D0012C1AD020E028E0012D01D96D1ECF
:101E80001BE01F25641E18E0012D01D96D1E14E012
:101E90001E25641E11E0012D03D1F0B200F082FA7C
:101EA00008B16D1E09E01C25022406E0012D01D9B0
:101EB0006D1E02E01F250C24761E3E607C60BD6016
:101EC000C7F80C80C7F81090C7F814A0BDE8F087D9
:101ED00010B58A07120F0F23934021F00304054920
:101EE00021448C689C438C608B68904003438B60DA
:101EF00010BD0000000001402DE9F0410022CC7827
:101F000004F00F03E40601D58C7823430C784FF0DE
:101F10000F0714F0FF0F4FF0010C1CD005680CFAEE
:101F200002F40E882640A64211D1960007FA06F860
:101F300025EA080503FA06F848EA0505CE78282EB2
:101F400002D0482E02D002E0446100E00461521C3D
:101F5000082AE4D305600A88FF2A1ED945680022B2
:101F600002F108060CFA06F40E882640A64210D1AB
:101F7000960007FA06F825EA080503FA06F848EA83
:101F80000505CE78282E00D14461CE78482E00D1A8
:101F90000461521C082AE3D34560BDE8F081024683
:101FA000002092680A4200D00120704741617047CA
:101FB0000161704710B500F073F8BDE8104000F003
:101FC00001B8000010B58CB00121084600F0BAFC41
:101FD0001548019015480290002003904FF40071BD
:101FE0000491059080210691079008902021099185
:101FF000C9010A910B900E4C01A92046FFF750F938
:1020000000F018F8012206212046FFF73FF90121D0
:102010002046FFF79FF8044801224021001F01F0ED
:10202000CFF80CB010BD0000044800403003002081
:102030003000024008B54FF4C06000F083FA0D2074
:102040008DF8000001208DF8010000218DF80210AC
:102050008DF80300684600F043FA08BD70B54FF4F0
:1020600080652846FFF700F9012430B10A48047062
:102070002846BDE87040FFF761B84FF40075284668
:10208000FFF7F2F8002806D0044804702846BDE89F
:102090007040FFF753B870BD5D0000205C00002069
:1020A00010B586B00121082000F068FC01218804E9
:1020B00000F056FC4FF48060ADF8140018208DF845
:1020C000170003208DF81600144C05A92046FFF7D1
:1020D00013FFE114ADF8141004218DF8171005A9B1
:1020E0002046FFF709FF4FF4E13001900020ADF8E2
:1020F0000800ADF80A00ADF80C000C21ADF80E1088
:10210000ADF81000064C01A9204601F0A5F8012108
:10211000204601F049F806B010BD0000000C014057
:1021200000480040FEE7034600209A8A1B8B1B04F0
:102130001A4322F07F42914300D1012070470029C9
:1021400004D0018841F0010101807047018821F02D
:10215000010101807047000010B586B001214805DB
:1021600000F0FEFB0121082000F008FC4020ADF843
:10217000040003208DF806001C208DF80700144C85
:1021800001A92046FFF7B8FE8021ADF8041001A98F
:102190002046FFF7B1FE0020ADF80C004BF6FF70B3
:1021A000ADF80E007820ADF810002015ADF8120043
:1021B0000001ADF8140007480290074C02A9204620
:1021C00000F03EF801212046FFF7B9FF06B010BD30
:1021D000000C0140801A060000540040002904D081
:1021E000018841F4807101807047018821F4807179
:1021F00001807047002904D0018841F400710180FA
:102200007047018821F40071018070470CB50246C7
:10221000002000920A0F019221F07F41019A002ACA
:1022200003D0009A1432009203E0090C009A18328D
:102230000092009A12680A4200D001200CBD0000F2
:1022400070B586B004460D46A08820F03F0601A870
:1022500000F0A2FB03982849B0FBF1F189B20E43CC
:10226000A680228822F001022280244B2A689A420A
:1022700009D85200B0FBF2F080B2042800D204204A
:10228000491C218423E0EB88A3F53F46FF3E0BD099
:1022900002EBC20303EB0212B0FBF2F080B240F497
:1022A0008040020506D007E002EB4202B0FBF2F0EC
:1022B00080B2F6E740F0010040F400404FF496721F
:1022C00051434FF47A72B1FBF2F1491C2184A0838F
:1022D000208840F00100208020884FF6F53108402A
:1022E000A9886A89114301432180A8892989084363
:1022F000208106B070BD000040420F00A0860100A2
:10230000002A02D041F0010101E001F0FE0101824A
:1023100070470182704700002DE9F04104460E46E7
:102320001D4D4FF4003739462846FFF76FFF002850
:10233000F9D101212846FFF751FF184F28463946A9
:10234000FFF7F1FE0028F9D0002278212846FFF798
:10235000D7FF134F28463946FFF7E5FE0028F9D08E
:1023600021462846FFF7D5FF0D4CA41C21462846E0
:10237000FFF7D9FE0028F9D031462846FFF7C9FFFC
:1023800021462846FFF7CFFE0028F9D02846BDE8B1
:10239000F0410121FFF72EBF00540040010003006F
:1023A0008200070000F5FA60810701D00020704725
:1023B0004FF4C871B0FBF1F201FB120131B164219D
:1023C000B0FBF1F201FB12000028F0D001207047B1
:1023D00038B50121082000F0D1FA2020ADF8000026
:1023E00010208DF8030003208DF802000F4C694681
:1023F0002046FFF781FD0121ADF800106946204617
:10240000FFF77AFD0221ADF8001069462046FFF77C
:1024100073FD20212046FFF7CBFD01212046FFF769
:10242000C7FD02212046FFF7C3FD38BD000C014067
:10243000FEE7704708B54FF4C06000F083F81E2037
:102440008DF8000001208DF8010003218DF80210A5
:102450008DF80300684600F043F808BD08B54FF456
:10246000C06000F06FF825208DF8000001208DF885
:10247000010006218DF802108DF80300684600F077
:102480002FF808BD08B54FF4C06000F05BF82620B7
:102490008DF8000001208DF8010005218DF8021053
:1024A0008DF80300684600F01BF808BD08B54FF42E
:1024B000C06000F047F806208DF8000002208DF87B
:1024C000010001208DF802008DF80300684600F03D
:1024D00007F828208DF80000684600F001F808BDD4
:1024E00070B50F23C27801260178002A1ED0144A45
:1024F000126802F4E062C2F5E062120AC2F104045A
:10250000D3404578A54082781A402A43120101F150
:10251000E02181F80024007800F01F018E4040097E
:10252000800000F1E020C0F8006170BD01F01F00E4
:1025300086404809800000F1E020C0F8806170BD4D
:102540000CED00E0024908430249086070470000B2
:102550000000FA050CED00E004480168044A01F4AB
:10256000E06111430160BFF34F8FFEE70CED00E027
:102570000400FA0570B50646002505F1B000C0B2AA
:1025800000F0D1FE002000F0CEFE102000F0CBFEC7
:102590000024304600F0CBFE641CE4B2802CF8D35B
:1025A0006D1CEDB2082DE8D370BD10B54FF47A70F4
:1025B000FEF7C6FEAE2000F0B6FE202000F0B3FE0F
:1025C000102000F0B0FEB02000F0ADFEC82000F0FA
:1025D000AAFE002000F0A7FE102000F0A4FE40207C
:1025E00000F0A1FE812000F09EFEFF2000F09BFE87
:1025F000A12000F098FEA62000F095FEA82000F093
:1026000092FE3F2000F08FFEA42000F08CFED3202D
:1026100000F089FE002000F086FED52000F083FE49
:10262000F02000F080FED92000F07DFE222000F096
:102630007AFEDA2000F077FE122000F074FEDB2034
:1026400000F071FE202000F06EFE8D2000F06BFE89
:10265000142000F068FEBDE81040AF2000F063BE1B
:1026600010B50446B031C8B200F05DFE102040EA5B
:10267000141000F058FE04F00F00BDE8104040F0C8
:10268000010000F050BE00002DE9F04180460F46E9
:102690000025540139464046FFF7E2FF0C4E305DFD
:1026A00000F045FE641C6D1CEDB2102DF7D37F1CAD
:1026B000F9B24046FFF7D4FF0025305D00F037FE49
:1026C000641C6D1CEDB2102DF7D3BDE8F081000045
:1026D0007C0000202DE9F04180460F460025540182
:1026E00039464046FFF7BCFF0C4E305D00F01FFE40
:1026F000641C6D1CEDB2102DF7D37F1CF9B240465F
:10270000FFF7AEFF0025305D00F011FE641C6D1C6C
:10271000EDB2102DF7D3BDE8F0810000FC000020E1
:102720002DE9F04180460F460025540139464046C8
:10273000FFF796FF0C4E305D00F0F9FD641C6D1C38
:10274000EDB2102DF7D37F1CF9B24046FFF788FF9A
:102750000025305D00F0EBFD641C6D1CEDB2102D0A
:10276000F7D3BDE8F0810000FC0100202DE9F0471F
:1027700004460F4691460026012B22D0022B24D17D
:10278000DFF8ACA04EE0203800F0FF087E2C02D924
:1027900000247F1CFFB239462046FFF761FF002569
:1027A000244908EB480001EB400818F8050000F048
:1027B000BEFD6D1CEDB2062DF7D3A41DE4B2761C50
:1027C000F6B219F806000028DDD1BDE8F087203800
:1027D00000F0FF08782C02D900247F1CFFB2394694
:1027E0002046FFF73DFF002505EB08101AF8000012
:1027F00000F09DFD6D1CEDB2082DF5D3781CC1B223
:102800002046FFF72DFF002505EB08105044007A05
:1028100000F08DFD6D1CEDB2082DF5D30834E4B247
:10282000761CF6B219F806000028D0D1CDE70000DA
:10283000C46000089C5E00082DE9FE4304460D4676
:1028400017461E463846FDF72BFF8046FDF705FF6D
:102850003946FDF777FD10F0FF4F10D03846FDF7F1
:1028600052FF02460B4609A1684600F075FD33464B
:102870006A4629462046FFF779FFBDE8FE834246B7
:1028800004A1684600F068FDF1E70000252E3366DC
:1028900000000000256400002DE9FC4300274FF0F4
:1028A00001084FF007094FF0800C6E468DF8057057
:1028B0008DF804708DF803708DF802708DF801802A
:1028C0008DF800902F230522002109E05B1EDBB26A
:1028D000072902D2491CC9B202E00021521ED2B21D
:1028E0002CFA01F5845C2C4201D1002AEED1A3F12F
:1028F0000801CDB214E00521721812F8012C12065D
:1029000002D509B1012200E00022745C6400745415
:1029100022447254491EC9B2FF29EDD36D1EEDB297
:10292000002DE8D10021425C745C62404254491C95
:10293000C9B20529F7D9082BB8D80078BDE8FC83BF
:1029400070470000054A002903D0516901435161D5
:102950007047516981435161704700000010024087
:10296000054A002903D0D1690143D1617047D1697B
:102970008143D1617047000000100240054A0029E0
:1029800003D09169014391617047916981439161DD
:10299000704700000010024010B5264A516801F04F
:1029A0000C01254B002927D0042927D0082927D03E
:1029B0000360516801F0F0010909204B5C5C01687B
:1029C000E1404160546804F4E064240A1C5D21FA8B
:1029D00004F48460546804F46054E40A1B5DD94034
:1029E000C160526802F44042920B144B1B1F9A5C68
:1029F000B1FBF2F1016110BD0360DAE70360D8E7D3
:102A0000516801F47011536803F48033022404EB1D
:102A1000914133B153689B0307D5094B594301607A
:102A2000C7E7074B59430160C3E7034B59430160B4
:102A3000BFE700000010024000127A0018000020DA
:102A400000093D000022002101E0491C89B28142B9
:102A5000FBD3521C92B2042AF5D3704708B501216A
:102A60000820FFF78BFFC020ADF8000014208DF880
:102A7000030003208DF8020069460548FFF73CFA81
:102A800003484021103001608021016008BD000032
:102A9000000801402DE9FC4789460027B84600247C
:102AA0004006060E751C00F0D7F8641EE4B28CB325
:102AB00000F0B8F8304600F0A1F80028F3D14846FD
:102AC00000F09CF80028EED100F0ACF8E8B200F07D
:102AD00095F80028E7D100F05FF80746002000F0E5
:102AE0005BF88046012000F057F8824600F0B4F809
:102AF0008DF805608DF804908DF803508DF8027004
:102B00008DF8018000208DF800006846FFF7C4FEB4
:102B10005045C7D147EA0820BDE8FC8710B507211A
:102B20000020FFF7B7FFFDF7AEFD094A094BFDF79F
:102B3000B3FC4FF06632084BFDF7A8FC00224FF0C3
:102B40008043FDF702FCBDE81040FDF707BE000022
:102B50007B14AE47E17A943F6612714010B50D4B7D
:102B6000802018600220FFF76DFF40241C600520C4
:102B7000FFF768FF074808380068000601D5012301
:102B800000E000230348001D04600320FFF75AFF04
:102B9000184610BD1008014070B506460825FFF71D
:102BA000DDFF20B16006000E40F0010402E060008D
:102BB00000F0FE046D1EEDB2002DF0D1304600F0A5
:102BC00003F8204670BD000030B50B4B80211C1F60
:102BD00000280ED021600220FFF734FF4025256039
:102BE0000620FFF72FFF1D60BDE830400320FFF7F0
:102BF00029BF1960EFE700001408014030B5054611
:102C00000824280601D5012000E00020FFF7DCFFA2
:102C10006806050E641EE4B2002CF2D1BDE8304017
:102C2000FFF79CBF30B50B4B80251D600520FFF7DB
:102C300009FF40241C600520FFF704FF054B1B1D06
:102C40001D600520FFF7FEFE1C60BDE8304005203A
:102C5000FFF7F8BE1008014030B5094B40251D6054
:102C60000520FFF7EFFE80241C600520FFF7EAFE39
:102C7000034B1B1F1D600520FFF7E4FE1C6030BDE9
:102C800014080140704700F001B800000CB50022A4
:102C9000019200922748016841F4803101604FF4AD
:102CA000A063016801F4003100910199491C019170
:102CB000009911B901999942F3D10168890302D5AC
:102CC0000121009100E000920099012930D11A49B8
:102CD0000A6842F010020A600A6822F003020A60E1
:102CE0000A6842F002020A6041684160416841603E
:102CF000416841F480614160416821F47C11416088
:102D0000416841F4E8114160016841F0807101605F
:102D100001688901FCD5416821F0030141604168E7
:102D200041F0020141604168C1F381010229FAD1F9
:102D30000CBD00000010024000200240B0F1807F76
:102D400001D30120704720F07F414FF0E020491E61
:102D50004161044AF0211170002181610721016164
:102D60000020704723ED00E000F0FCB810B50348E8
:102D7000FFF7E4FF002800D0FEE710BD4019010076
:102D800010B50F48016841F00101016041680D4A2A
:102D90001140416001680C4A11400160016821F452
:102DA00080210160416821F4FE0141604FF41F0160
:102DB0008160FFF768FF05494FF00060086010BDB3
:102DC000001002400000FFF8FFFFF6FE08ED00E0F3
:102DD00010B50B4C0121204600F05DF800280DD005
:102DE0000121204600F048F80648018841F40041DE
:102DF0000180BDE81040002000F026B810BD0000A2
:102E0000000800407A0000203EB504460D4601212E
:102E10000420FFF7A5FDADF80440ADF800500020F8
:102E2000ADF80600ADF80200064C6946204600F0F9
:102E30004BF801221146204600F039F8FFF7FAFA64
:102E40003EBD00000008004010B50A4A00280AD024
:102E500014460021204600F034F82046BDE810401A
:102E6000012100F00CB8BDE810400021104600F030
:102E700006B8000000080040C943018270470029DD
:102E800004D0018841F0010101807047018821F0E0
:102E900001010180704702460020138A0B4092898D
:102EA0000A40002B02D0002A00D001207047002ADF
:102EB00003D082890A438281704782898A43828152
:102EC000704781847047000030B502881B4C1C4D50
:102ED000A0420DD0A8420BD0B0F1804F08D0194BC2
:102EE000984205D0184B984202D0184B984203D113
:102EF00022F070034A881A43154B984206D0154BAE
:102F0000984203D022F44073CA881A4302808A8808
:102F100082850A880285A0420AD0A84208D00E4ABB
:102F2000904205D00D4A904202D00D4A904201D104
:102F3000097A01860121818230BD0000002C014008
:102F4000003401400004004000080040000C004034
:102F500000100040001400400040014000440140C7
:102F60000048014003490868002801D0401E08605D
:102F7000704700005800002070B504460D4600213F
:102F80002046FEF7E7F829462046FEF7A6F9204638
:102F9000BDE870400121FEF7DDB8000010B586B035
:102FA00001210420FFF7EAFC4FF40070ADF8140093
:102FB00018208DF8170003208DF816001A4C05A96B
:102FC0002046FEF799FF2115ADF8141004218DF865
:102FD000171005A92046FEF78FFF01218803FFF790
:102FE000CDFC4FF4E13001900020ADF80800ADF8C1
:102FF0000A00ADF80C000C21ADF80E10ADF8100071
:103000000A4C01A9204600F027F9FFF727FA012210
:1030100040F22551204600F004F90121204600F03D
:10302000C3F806B010BD00000008014000380140A0
:1030300070B5164C40F22551204600F0CBF8002820
:103040000ED0204600F066F9C1B2114A1088030480
:1030500006D444044FF0000307D50A2901D0138099
:1030600070BD40F40040108070BD0D290AD0094D9C
:10307000C0F30D042955401C80B21080C728F3D935
:10308000138070BD40F48040108070BD0038014056
:10309000780000202E07002030B585B001210420E3
:1030A000FFF76CFC0424ADF8104018208DF81300D5
:1030B00003208DF81200224D04A92846FEF71CFFBC
:1030C0000821ADF810108DF8134004A92846FEF72A
:1030D00013FF01214804FFF743FC4FF4E130009057
:1030E0000024ADF80440ADF80640ADF808400C20CF
:1030F000ADF80A00ADF80C40124D6946284600F0C4
:10310000ABF8FFF7BFF9012240F22551284600F045
:1031100088F80121284600F047F8FEF7E1F801227F
:103120008021284600F04CF841F61F416320FFF74C
:103130006BFE054804800020FFF786FE05B030BD19
:1031400000080140004400407A00002070B5124C95
:1031500040F22551204600F044F8002816D02046C1
:1031600000F0D8F8C5B20D4C2088B0F5806F0ED2B3
:1031700000210B48FFF7A5FE208810B90120FFF7BA
:1031800063FE2088411C218006490D5470BD40F427
:103190000040208070BD0000004400407A00002004
:1031A00000080040F60B0020002904D0818941F47A
:1031B000005181817047818921F4005181817047DC
:1031C000002A03D0828A0A4382827047828A8A4315
:1031D000828270470246002012880A4200D00120F5
:1031E000704770B5002440F66A12C1F3421301F033
:1031F0001F05012606FA05F2012B0CD0022B0DD07B
:10320000838A1340090A8E40008830400BB100B118
:103210000124204670BD83891340F3E7038A1340DD
:10322000F0E710B540F66A13C1F3421301F01F0432
:103230000121A140012B07D0022B07D014303AB155
:1032400002680A43026010BD0C30F8E71030F6E760
:1032500002688A43026010BD30B585B004460D4651
:10326000208A4CF6FF710840E98801432182A08939
:103270004EF6F3110840A9882A8911436A8902434E
:103280001143A181A08A4FF6FF410840A98901435B
:10329000A1826846FFF780FB1D48844201D1039854
:1032A00000E00298A189090408D500EBC00101EBF8
:1032B000001029684900B0FBF1F007E000EBC00105
:1032C00001EB001029688900B0FBF1F06422B0FB2B
:1032D000F2F109010B096FF018056B4300EB830055
:1032E000A3891D044FF0320307D503EBC000B0FBE8
:1032F000F2F000F00700084306E003EB0010B0FB1B
:10330000F2F000F00F000843208105B030BD00004E
:10331000003801408088C0F308007047C1F30801FD
:1033200081807047FEE701460020FEF7F5BF0146A9
:103330004020FEF7F1BF00000FB4054B10B503A904
:10334000044A029800F05EF910BC5DF814FB00001E
:10335000753D0008200300200FB4084B10B504A9E8
:1033600002AA039800F04EF9044602A9002000F0DA
:10337000EBFC204610BC5DF814FB0000493D000842
:103380007CB5491E1C461546CDE90001044B6A4632
:103390002146284600F036F9009A002111707CBDC4
:1033A000333D000837B514460846064B6A462146A9
:1033B00000F028F904466946002000F0C5FC2046CC
:1033C0003EBD0000493D0008004870472C03002026
:1033D00002E008C8121F08C1002AFAD170477047DE
:1033E000002001E001C1121F002AFBD1704700003C
:1033F0002DE9FF5FDDE90220010DDDF838B0024361
:1034000018D044F61050A1F2FF3141430D140F982B
:10341000012820D0A5EB0B00401C5FEA000A4FF00A
:103420000004474EDFF81C91A046504616D5CAF15D
:10343000000728E00F98012443A2012808D00021AA
:1034400000980F9BC0E90021C0E90243BDE8FF9F3F
:103450006FEA0B01F4E7CBF10000DEE7074612E06C
:10346000F80707D02246334640464946FDF714F890
:10347000804689462246334610461946FDF70CF829
:1034800004460E467F10002FEAD1DDE90201BAF1B1
:10349000000F42464B4602DAFCF7FEFF01E0FDF763
:1034A0006DF804460E460022284BFDF73FF903D87D
:1034B0004FF0FF30014607E00022254B2046314601
:1034C000FCF743FFFDF710FB102409E0002C0ADB9A
:1034D0000A220023FDF774F9019B30321A55641E4D
:1034E00050EA0102F2D1641C019AC4F111031444A0
:1034F0000F9A012A03D0012208430DD10AE00843A4
:1035000004D000204FF0110B0F9080E7A3EB0B05C8
:103510006D1E0DE05B4504DD4FF0000205F1010575
:1035200004E003DA4FF00002A5F10105002AECD017
:1035300000980F99C0E90231C0E9004586E7000014
:10354000000024400000F03F300000000000F04385
:103550000000E03F30380A2801D2012070470020E7
:1035600070470000FEB5002402F114052E1F331F22
:1035700006290BD0082914D0092912D00A2910D005
:1035800010A001F005FACCB10020FEBDCDE9006528
:1035900015A202F053FB032801D00024F3E7012415
:1035A000F1E71832CDE90065029212A202F046FB63
:1035B000042801D00024E6E70124E4E74FF0FF30BF
:1035C000FEBD00005061727365206F662074696DE6
:1035D00065206572726F722028666F726D6174204B
:1035E0006572726F7229210025326425326425329A
:1035F000640000002532642532642532642E25647F
:10360000000000002DE9FF4F95B09B468946064615
:1036100000250FE2252877D100242746F84A01210A
:10362000059400E0044316F8013F203B01FA03F043
:103630001042F7D130782A2811D06FF02F0330785C
:10364000A0F13002092A16D8059A44F0020402EBD0
:10365000820203EB42021044761C0590EFE759F812
:10366000042B0592002A03DA504244F400540590DA
:1036700044F00204761C30782E2816D116F8010F7B
:1036800044F004042A280DD06FF02F023078A0F106
:103690003003092B09D807EB870302EB4303C71854
:1036A000761CF3E759F8047B761C30786C280FD031
:1036B00006DC4C2817D068280DD06A2814D104E005
:1036C000742810D07A280FD10DE044F400140AE0D9
:1036D00044F4801401E044F440147278824202D130
:1036E00004F58014761C761C307866280BD013DC29
:1036F000582877D009DC002875D04528F6D0462810
:10370000F4D047281AD19DE118E0632835D0642809
:1037100079D0652812D195E1702873D008DC67282C
:10372000F1D069286FD06E280DD06F2806D1B5E092
:1037300073282CD0752875D0782874D05A461799DC
:1037400090476D1C75E1C4F30250022809D003288C
:103750000DD0D9F8001004280DD00D6009F104092E
:1037600067E1D9F80010EA17C1E90052F6E7D9F885
:1037700000100D80F2E70D70F0E719F8041B8DF8CA
:10378000001000208DF80100EA46012003E059F8FE
:1037900004AB4FF0FF3061074FF0000102D40DE0A1
:1037A00008F101018846B9420FDA8045F8DB1AF8C2
:1037B00008100029F4D108E008F10101884681428F
:1037C000FADB1AF808100029F6D105985B46A0EB41
:1037D000080721463846179A00F094FA284400EB6F
:1037E000080507E04DE029E10DE01AF8010B5A4603
:1037F00017999047B8F10108F7D25B462146384641
:10380000179A13E142E00A220092C4F302524FF0E9
:10381000000A022A08D059F804CB032A4FEAEC71B7
:103820000AD00DE029E02AE009F1070121F00702A2
:10383000F2E802C1914609E00FFA8CFC4FEAEC7104
:10384000042A03D14FFA8CFC4FEAEC71002907DA05
:103850000A460021DCF1000C61EB02012D2202E09E
:10386000220504D52B228DF80420012203E0E20773
:1038700001D02022F7E7904659E00A2102E0102209
:103880000DE010214FF0000A00910BE010224FF0E4
:10389000000A44F004040827009203E008224FF0D5
:1038A000000A0092C4F30252022A05D059F804CB50
:1038B0000021032A08D009E009F1070121F00702DD
:1038C000F2E802C1914605E01FFA8CFC042A01D1FE
:1038D0000CF0FF0C4FF00008220728D5702806D006
:1038E000009B83F0100353EA0A0305D00EE0402248
:1038F0008DF80420012208E05CEA010206D03022A3
:103900008DF804208DF8050002229046009B83F07C
:10391000080353EA0A030AD15CEA010201D16207F3
:1039200005D530228DF804204FF001087F1E58285D
:1039300004D034A003900EA802900DE036A0F9E761
:1039400053466046009AFCF73BFF84460398825C2E
:103950000298401E029002705CEA0100F0D10298C9
:1039600006A9081A00F1200A600702D524F4803461
:1039700000E00127574502DDA7EB0A0000E0002028
:1039800000EB0A01009005984144401A0590E003BD
:1039900006D45B462146179A059800F0B3F9054412
:1039A000002706E001A85A46C05D179990476D1C94
:1039B0007F1C4745F6DBE0030CD55B462146179A92
:1039C000059800F09FF9054404E030205A46179905
:1039D00090476D1C0099481E00900029F5DC08E016
:1039E000029802995A460078491C0291179990470B
:1039F0006D1CBAF10001AAF1010AF1DC65E10000D9
:103A000009280100303132333435363738396162B4
:103A10006364656600000000303132333435363778
:103A200038394142434445460000000000F058F94F
:103A30000544761C307800287FF4ECAD19B0284698
:103A4000BDE8F08F620700D4062709F1070222F0D3
:103A5000070CFCE80223E14603F000485FEA080C8B
:103A600002D00FF2702C0DE05FEA045C02D50FF279
:103A7000682C07E05FEAC47C02D00FF2602C01E002
:103A8000AFF2700C4FF0FF3823F00043CDF850C078
:103A900065280CD006DC452809D046281DD04728CB
:103AA0003DD13DE0662818D067287ED138E000215E
:103AB000112F01DB112000E0781CCDE9000106A9DF
:103AC0000EA8FFF795FCDDE90F010E9A0391002186
:103AD000009207F1010A04914DE04FF00040009779
:103AE000CDE9011006A90EA8FFF782FCDDE90F025F
:103AF00003920E9B11990022DDF80CA00093049212
:103B000011B9791C00EB010AB7EB0A0004D4C0F12B
:103B1000FF3007F1010A0490AAEB0700019044E08E
:103B2000012F00DA01270021112F01DD112000E013
:103B30003846CDE9000106A90EA8FFF759FCDDE9DA
:103B40000F010E9A0391002104910092BA462107B9
:103B50000CD40399514500DA8A46BAF1010F05DD0C
:103B6000009AAAF10101515C302908D0B84202DA6A
:103B700010F1040F06DA0121CDE9011015E0AAF1D8
:103B80000101E9E7002805DC049901440491AAEB4E
:103B9000000102E0411C514500DD8A460499401AAB
:103BA000401C01904FF000400290200704D401987F
:103BB000504501DBCDF8048000208DF84F000298BD
:103BC0000DF14F07B0F1004F25D02B200E90029839
:103BD0004FF0020800280CDA404202902D200E908F
:103BE00007E00A210298FCF7D5FD3031029007F872
:103BF000011DB8F10001A8F10108F2DC02980028CB
:103C0000EFD1791E0E980870307800F0200040F057
:103C1000450007F8020D12A8C01B00F10708149810
:103C2000007800B1012000EB0A01019801EBE0717E
:103C300005984144401A401E0590E00306D45B46B7
:103C40002146179A059800F05DF80544149800780D
:103C500018B15A46179990476D1CE00324D55B466E
:103C60002146179A059800F04DF805441CE0049889
:103C7000002807DBDDE90301884203DD0098405C92
:103C8000179901E0179930205A469047049805F19A
:103C90000105401C04900198401E019004D12E2083
:103CA0005A46179990476D1CBAF10001AAF1010A12
:103CB000DDDC05E017F8010B5A46179990476D1C9B
:103CC000B8F10001A8F10108F4DC5B462146179A1F
:103CD0000598ABE62D0000002B000000200000003E
:103CE0002DE9F041044600251E461746880404D4F9
:103CF00005E039462020B0476D1C641EF9D52846E2
:103D0000BDE8F0812DE9F041044600251E469046AD
:103D1000C80301D5302700E02027880404D505E03A
:103D200041463846B0476D1C641EF9D52846BDE8AB
:103D3000F0814A68002A06D00A68531C0B60107094
:103D40004868401E486070470A68531C0B6010703A
:103D50007047000004480088010404D5034AC0F3FA
:103D60000E000021115470477A000020F60B00204D
:103D70007047000070B50446064DE1B22846FFF7D3
:103D8000CDFA80212846FFF725FA0028F9D02046F1
:103D900070BD00000038014010B5002821D0114B43
:103DA0000022001F196803E0814203D80A464968CF
:103DB0000029F9D152B11368841A9C4204D10068D9
:103DC00018441060104602E0506000E0186039B1FD
:103DD00002680B1A934203D10B681A4402604968C7
:103DE000416010BD2403002070B505460E4609A0B1
:103DF000FFF7A2FA002405E0295D09A0FFF79CFA6D
:103E0000641CA4B2B442F7DBBDE8704005A0FFF724
:103E100093BA00000D0A496E666F3A200000000058
:103E2000256300000A00000001263F4D00272F6097
:103E3000FEF79CFFFFF7B2F8FFF72EF9FEF7BAF88E
:103E4000FDF7D0F8FDF762FFFEF7C2FAFEF706FEB7
:103E5000FEF782F9FEF7A9FB34A0FFF76DFA3EA04A
:103E6000FFF76AFAFF20FEF785FB4FF47A742046CD
:103E7000FDF766FA0020FEF77DFB2046FDF760FAAD
:103E800000244FF01E0808EB0410C0B222460021A7
:103E9000FEF7FAFB641CE4B2042CF4D3012335A230
:103EA00002210020FEF762FC00242007000E2246BB
:103EB0000321FEF70FFC641CE4B2082CF5D34FF489
:103EC000FA6413E0FDF76CFB06462046FDF738FA6E
:103ED0002968491C29602DA0FFF72EFA286832288E
:103EE00004DD30A0FFF728FAFEF736FB002EE9D1FB
:103EF0002F60012410E033A23BA13DA0FDF74EFB53
:103F000004462968491C296020A0FFF715FA286893
:103F1000322801DDFEF720FB002CECD137A0FFF7A3
:103F20000BFA00F07FFBFCE7280000200D0A20239D
:103F3000232323232323232323232320202020443C
:103F4000656D6F2020202323232323232323232372
:103F500023230D0A200000000D0A20CAB5D1E9C7AD
:103F6000B0C7EBC1ACBDD3BAC3B8F7C4A3BFE92097
:103F70000D0A20002D2D2D2D2D2D2D2D2D2D2D2DEE
:103F80002D2D2D2D2D2D2D2D00000000D5FDD4DA49
:103F9000B3A2CAD4C1ACBDD33A202564B4CE0D0AB5
:103FA00000000000B4EDCEF33AC1ACBDD3B3ACCA4F
:103FB000B1A3ACBDF8D0D0B8B4CEBBB4A6C0ED0DA3
:103FC0000A000000373862393865323432353661DC
:103FD00034366636393537333439623133373665FE
:103FE000616363380000000074657374330000007F
:103FF0006131757438545536574E3100D2D1C1AC49
:10400000BDD3B0A2C0EFD4C6BDD3B7FECEF1C6F7C4
:10401000A3ACD7BCB1B8CFFBCFA2B7A2CBCD0D0A12
:1040200000000000F0B50B30154D20F00701002412
:10403000144A0FE003688B420BD38B4205D95E1AFA
:1040400043184768C3E9006700E04368136002C093
:1040500004E0021D10680028ECD12046002802D19F
:10406000286808B10020F0BD064A07481060074ADA
:10407000121A22F00702C0E9002401202860D7E7C5
:104080002803002024030020FC100020F82000203A
:104090002DE9F0410026383010F8382C4A62D0E97A
:1040A0001A23C1E90A23D0E91C23C1E90C23D0E972
:1040B0001E233838C1E90E2300234FF0010C0022E3
:1040C00000EB83070DE0BC6854B102EB820501EB05
:1040D0008505D5F87083444502D1C5F874C3761CB4
:1040E000521CD1F86C439442EDDC5B1C252BE6DBC3
:1040F000C1F86863086840F080000860BDE8F0819E
:1041000070B5D0E900329A4233DC2523B3EB820F3D
:104110002FDB012A01DA012242608268C1F86C2398
:104120004268521E92008368141DA34201DA9D1A50
:1041300000E00425002216E043685B1E02EB8303C7
:1041400002EB820403EB830300EB840401EB8303A3
:1041500003F55C73E6681E6066699E60A669DE60B2
:10416000E4691C61521CAA42E6DB086840F040008A
:10417000086070BDC2680A6102694A6142698A6169
:104180008269CA61C26B0A62D0E91223C1E90C23B9
:10419000D0E91423C1E9142390F828204E2A16D020
:1041A000D0E9082383F00043C1E9102390F83820B8
:1041B000452A0FD0D0E90C2383F00043C1E9122334
:1041C000006CC867086840F4805008607047D0E908
:1041D0000823E9E7D0E90C23F0E790F83820412ADA
:1041E00002D0562A09D00CE00B6A022203B90A62F7
:1041F0004B6A012B05D14A6203E000220A620122C8
:104200004A62027A4E2A1FD0D0E9002383F000438D
:10421000C1E91023027E452A19D0D0E9042383F096
:104220000043C1E91223826A0A61C26A4A61026BD1
:104230008A61426BCA6190F8390081F87800086899
:1042400040F4007008607047D0E90023E0E7D0E94F
:104250000423E6E770B505460C46287F412802D0C6
:10426000562809D00CE0216A022001B92062616A57
:10427000012905D1606203E0002020620120606214
:104280001C222946201DFBF77CFF95F828004E28AC
:1042900028D0D5E9080181F00041C4E9100195F862
:1042A0003800452821D0D5E90C0181F00041C4E94E
:1042B0001201D5E91001C4E91601D5E910010C4A33
:1042C0000C4BFCF7E9F8C4E91801D5E91201C4E97F
:1042D0001A0195F8590084F87800206840F40060CD
:1042E000206070BDD5E90801D7E7D5E90C01DEE70C
:1042F0006F1283C0CAA1FD3FD0E90023C1E91A2390
:10430000D0E90423C1E91C23D0E90823C1E916231D
:10431000D0E90C23C1E9182390F8390081F878001E
:10432000086840F480600860704710B50C4601468C
:104330001C22201DFBF725FF206840F480702060C0
:1043400010BDC2680A6102694A6142698A61826974
:10435000CA61C26B0A62D0E91223C1E90C23D0E919
:104360001423C1E9142390F828204E2A14D0D0E950
:10437000082383F00043C1E9102390F83820452A30
:104380000DD0D0E90C2080F00040C1E9122008686F
:1043900040F0010008607047D0E90823EBE7D0E95E
:1043A0000C20F2E72DE9F0410026383050F8342C8B
:1043B0004A62D0E91A23C1E90A23D0E91C23C1E9E2
:1043C0000C23D0E91E233838C1E90E2300234FF017
:1043D000010C002200EB83070DE0BC6854B102EB36
:1043E000820501EB8505D5F88480444502D1C5F8E6
:1043F00088C0761C521CD1F880409442EDDC5B1CD6
:10440000252BE6DBCE67086840F002000860BDE8B7
:10441000F08170B5D0E900329A4232DC2523B3EB4B
:10442000820F2EDB012A01DA012242608268C1F884
:1044300080204268521E92008368141DA34201DA54
:104440009D1A00E00425002215E043685B1E02EB84
:10445000830302EB820400EB840403EB830301EB90
:104460008303E66843F8846F66699E60A669DE6030
:10447000E4691C61521CAA42E7DB086840F00400B2
:10448000086070BD70B505460C46287F412802D0F3
:10449000562809D00CE0216A022001B92062616A25
:1044A000012905D1606203E00020206201206062E2
:1044B0001C222946201DFBF764FE95F828004E2893
:1044C00020D0D5E9080181F00041C4E9100195F838
:1044D0003800452819D0D5E90C0181F00041C4E924
:1044E0001201D5E910010A4A0A4BFBF7D5FFC4E9CE
:1044F0001801D5E91201C4E91A01206840F008004A
:10450000206070BDD5E90801DFE7D5E90C01E6E7D9
:104510006F1283C0CAA1FD3F8068C1F854060E4ADD
:10452000C1F85826002809D001280BD002280DD048
:1045300007280FD1114609A000F087BA06490CA040
:1045400000F083BA04490EA000F07FBA024911A01E
:1045500000F07BBA70470000F60F00204750545817
:1045600054207573657220696E666F3A202573005A
:104570004750545854206572726F723A2025730068
:104580004750545854207761726E696E673A2025FF
:10459000730000004750545854206E6F746963656F
:1045A0003A20257300000000D0E90023C1E91A2356
:1045B000D0E90423C1E91C23426B006BC1E9180256
:1045C000086840F010000860704710B5C2B003469C
:1045D0000C4600200146FF2C0BDC2246194601A8A0
:1045E000FBF7CFFD01A90020085541A901A801F062
:1045F00027FC42B010BD30B5C1B003460C4615468D
:104600000020FF2C0CDC224619466846FBF7B9FD5A
:1046100000200DF804002A4640A96846FBF705FE75
:1046200041B030BDADF5D46D4FF0000901F002FB93
:104630007849016001F0FEFA7749416001F0FAFA29
:104640007649816010A801F0ECFB0BA801F0A2F8FC
:10465000734FDFF8D081744EDFF8D0A1744C4FF463
:10466000807B0025387848B110AB5A4671490BA8B9
:1046700000F0BAFA3D704FF001090CE098F8000024
:1046800048B110AB5A466C490BA800F0ADFA88F857
:1046900000504FF00109B9F1000F5BD0012308224F
:1046A00004A911A8FDF772FBDDE9200100F0ECF987
:1046B000C4E90201DDE9220100F0E6F9C4E90401E0
:1046C000DDE9240100F0E0F9C4E90601DDE9280193
:1046D00000F0DAF9C4E90801DDE908210798CDE91D
:1046E0000121009004A955A00EC901F26C71FEF7DA
:1046F00023FED4E90401CDE90001D4E9022357A047
:10470000FEF71AFED4E9062359A0FEF715FEDDE9EF
:1047100028235CA0FEF710FEDDE92A235EA0FEF749
:104720000BFEDDE92F1260A0FEF706FE68A0EB9AF3
:10473000EA99FEF701FEDDE91E01CDE90201DDE99E
:104740001C01CDE90001DDE91A236CA0FEF7F4FDA0
:104750004FF0000971A173A0FCF77EFF70B94FF410
:104760007A70FCF7EDFDFFF7F5FA4FF480617048C1
:10477000FBF720FD35806420FCF7E2FD3088000463
:104780000ED56CA0FEF7D8FD71A16948FEF7D4FDE7
:10479000FFF7E0FA4FF480616548FBF70BFD3580C9
:1047A000FEF7BCF96060FBF7AEFF02460B4669A05E
:1047B000FEF7C2FD606850451DDD022369A2052198
:1047C0000020FDF7D3FF0223052123206268FEF7B6
:1047D00033F86A496068884206DD012368A2072130
:1047E0002320FDF7C3FF3DE7012367A20721232014
:1047F000FDF7BCFF36E72570227805211007000E73
:10480000FDF78EFF2078401CC0B220700728F3D33C
:1048100028E700005D5E0008713D0008E93D0008E2
:104820005D0000205C0000207A0000200000F041C4
:104830003000002030030020300400200D0ACAB1EF
:10484000BCE425642D253032642D253032642C25BE
:10485000643A25643A25640D0A0000000D0ACEB3BF
:10486000B6C8A3BA25662CBEADB6C825660D0A002B
:104870000D0ABAA3B0CEB8DFB6C8A3BA256620C366
:10488000D72000000D0ACBD9B6C8A3BA2566206B85
:104890006D2F6820000000000D0ABABDCFF2A3BA48
:1048A000256620B6C80000000D0AD5FDD4DACAB9C5
:1048B000D3C3B5C4475053CEC0D0C7A3BA25642CC8
:1048C000BFC9BCFB475053CEC0D0C7A3BA256400B4
:1048D0000D0AD5FDD4DACAB9D3C3B5C4B1B1B6B7E0
:1048E000CEC0D0C7A3BA25642CBFC9BCFBB1B1B63A
:1048F000B7CEC0D0C7A3BA25640000000D0A50444B
:104900004F50A3BA25662C48444F50A3BA2566A33E
:10491000AC56444F50A3BA2566000000746573740A
:10492000330000006131757438545536574E3100EC
:10493000F60B0020B4AEBFDA323ACAD5B5BDB7FE29
:10494000CEF1C6F7CFC2B7A2CAFDBEDD000000009F
:104950000D0A0000CEC2B6C8203D202566A1E60D96
:104960000A000000202020202020202020202020BD
:1049700020202020202020200000000000001442E1
:104980007761726E696E6700202020202020200051
:104990000FB410B5ADF5816D01F04CF94468002CF1
:1049A00010D00DF2144340F2FF3101A8DDF81024BD
:1049B000FEF7E6FC01460020CDF80404002901DDE5
:1049C00001A8A0470DF5816D10BC5DF814FB2DE921
:1049D000F04704468846174604EB080600200025E9
:1049E0004FF0FF39C7F800900BE02378242B02D159
:1049F00008B1002407E02A2B0DD000B15D40641CF3
:104A0000401CB442F1D33968002902DA002C00D0EE
:104A10000020BDE8F087611DB142F4D8E1780D298E
:104A2000F1D121790A29EED110220221601CFFF771
:104A3000E2FD01463860301BA8EB0000401DA94292
:104A4000E1D0C7F800900024DDE70FB410B5ADF554
:104A5000816D01F0EFF88468002C10D00DF2144342
:104A600040F2FF3101A8DDF81024FEF789FC014671
:104A70000020CDF80404002901DD01A8A0470DF5B0
:104A8000816D10BC5DF814FB2DE9F04104460D4624
:104A9000DFF848800022434620462946FBF76EFD9A
:104AA000FBF712FEFBF7DEFD06460F4600224346EB
:104AB00030463946FBF7F0FC22462B46FBF7E9FC73
:104AC0000022074BFBF75AFD32463B46FBF73DFC05
:104AD00004460D4620462946BDE8F08100005940B5
:104AE00000004E4070B50546052901DA002070BD72
:104AF0003C4C052228462168FBF78AFB00284FD052
:104B0000052228466168FBF783FB00284AD005226E
:104B10002846A168FBF77CFBE8B305222846E1683C
:104B2000FBF776FBC0B3052228462169FBF770FB33
:104B300098B3052228466169FBF76AFB70B305222A
:104B40002846A169FBF764FB48B305222846E169C2
:104B5000FBF75EFB80B305222846216AFBF758FB72
:104B600058B305222846616AFBF752FB68B3052259
:104B70002846A16AFBF74CFB50B305222846E16AA0
:104B8000FBF746FB38B305222846216BFBF740FBB9
:104B900020B3002070BD07E008E009E00AE00DE066
:104BA0000120F7E70220F5E70420F3E70820F1E70A
:104BB0001020EFE72020EDE702E003E04020E9E7E6
:104BC0008020E7E74FF48070E4E74FF40070E1E7FE
:104BD0004FF48060DEE74FF40060DBE74FF4805075
:104BE000D8E70000EC020020F8B506461D46002478
:104BF00000200090304600F007FE69E0641C402869
:104C000055D00EDC08282FD006DC01281DD0022844
:104C100020D0042859D122E010282AD0202854D1AD
:104C20004FE0B0F5806F33D008DC802844D0B0F579
:104C3000807F32D0B0F5007F47D133E0B0F5006F10
:104C400021D0B0F5805F40D118E029460098FFF7E9
:104C500078FB3AE029460098FFF7A4FB35E02946A7
:104C60000098FFF7D6FB30E029460098FFF70AFCD2
:104C70002BE029460098FFF797FC26E0294600988C
:104C8000FFF778FA21E029460098FFF7E3FA1CE0E5
:104C900029460098FFF730FB17E029460098FFF7F8
:104CA00044FB12E029460098FFF797FA0DE02946E9
:104CB0000098FFF725FA08E029460098FFF7E8F981
:104CC00003E029460098FFF727FC0098FFF764F8F7
:104CD0006946304600F086FD00288FD12046F8BD99
:104CE00070B590B005460E461446B8212046FBF735
:104CF00061FA3146284601F086F804F1B00004F16B
:104D0000A801CDE90E108038011F04F1A00204F1C2
:104D10003403CDE90C320A1FCDE90A101038011F07
:104D2000131FCDE908320A1FCDE906101038131FF2
:104D3000011FCDE904320A1F231DCDE90032CDE960
:104D40000210234607A23146284600F077FF1128BB
:104D500005D013A0FFF71CFE002010B070BD01208D
:104D6000FBE700002442444753412C25432C256493
:104D70002C25642C25642C25642C25642C25642C7E
:104D800025642C25642C25642C25642C25642C2575
:104D9000642C25642C25662C25662C25662A0000AB
:104DA0004244475341207061727365206572726F8F
:104DB0007221000070B592B005460E4614465C2183
:104DC0002046FBF7F7F93146284601F01CF804F1BC
:104DD0005800011F0A1FCDE91010143804F14803D0
:104DE000011FCDE90E320A1FCDE90C101438143B17
:104DF000011FCDE90A320A1FCDE908101438143B0F
:104E0000011FCDE906320A1FCDE90410143B143806
:104E1000211DCDE90232CDE9001023460E4A31466C
:104E2000284600F00BFF6168491E8900A2680B1D2F
:104E30009A4201DA511A00E00421032202EB8101B7
:104E4000884201DB132805DD04A0FFF7A1FD002047
:104E500012B070BD0120FBE79C6700084244475335
:104E600056207061727365206572726F7221000046
:104E700070B5CEB005460E46144680212046FBF79D
:104E800099F93146284600F0BEFF04F1680204F1AA
:104E90006003CDE9093204F1780004F17001CDE935
:104EA0000B10203A203BCDE9053220382039CDE9DE
:104EB0000710183A183BCDE901321C38011FCDE923
:104EC00003101C3800900EAB0EA23146284600F0AD
:104ED000B5FE0E2805D018A0FFF75AFD00204EB0F1
:104EE00070BD0EA8FBF783F9014622460EA8FEF717
:104EF00039FB20B115A0FFF74BFD0020EFE70120A3
:104F0000EDE7000024474E4747412C25732C2566CA
:104F10002C25432C25662C25432C25642C25642C1C
:104F200025662C25662C25432C25662C25432C250F
:104F3000662C25642A000000474E474741207061D7
:104F4000727365206572726F72210000474E474789
:104F5000412074696D65207061727365206572729D
:104F60006F72210070B5C6B005460E46144640214A
:104F70002046FBF71FF93146284600F044FF04F1B4
:104F80003900411ECDE9041029383039CDE900102F
:104F900006AB04F11802CDE9022323460EA23146E6
:104FA000284600F04BFE072805D013A0FFF7F0FCC1
:104FB000002046B070BD06A8FBF719F9014604F1C0
:104FC0001C0206A8FEF7CEFA20B110A0FFF7E0FC05
:104FD0000020EEE70120ECE724474E474C4C2C25FF
:104FE000662C25432C25662C25432C25732C254324
:104FF0002C25432A00000000474E474C4C2070618E
:10500000727365206572726F72210000474E474CC3
:105010004C2074696D6520706172736520657272D1
:105020006F72210070B5CEB005460E461446602161
:105030002046FBF7BFF83146284600F0E4FE04F1B5
:105040005002CDE9094204F15900411ECDE90B108F
:10505000083A04F14003CDE90532201D011DCDE9D8
:105060000710203A203BCDE9013234302831CDE918
:1050700003101C3800900EAB10A23146284600F0F9
:10508000DDFD0D2807D00E2805D019A0FFF780FC04
:1050900000204EB070BD0EA8FBF7A9F801462246CD
:1050A0000EA8FEF75FFA20B116A0FFF771FC0020F2
:1050B000EFE72068643020600120EAE724474E5281
:1050C0004D432C25732C25432C25662C25432C255C
:1050D000662C25432C25662C25662C25326425322A
:1050E000642532642C25662C25432C25432A000098
:1050F000474E524D43207061727365206572726F26
:1051000072210000474E524D432074696D65207036
:1051100061727365206572726F72210070B588B01C
:1051200005460E46144640212046FBF743F831461B
:10513000284600F068FE04F13900411ECDE9061052
:1051400004F1300204F12803CDE904321938203982
:10515000203A203BCDE90032CDE90210234611A2CE
:105160003146284600F06AFD092805D016A0FFF751
:105170000FFC002008B070BD207A54280AD1207E90
:105180004D2807D194F828004E2803D194F8380010
:105190004B2804D011A0FFF7FBFB0020EAE7012019
:1051A000E8E7000024474E5654472C25662C25433B
:1051B0002C25662C25432C25662C25432C25662C76
:1051C00025432C25432A0000474E56544720706142
:1051D000727365206572726F72210000474E5654DB
:1051E00047207061727365206572726F7220286645
:1051F0006F726D6174206572726F722921000000F8
:1052000070B5C8B005460E4614461C212046FAF774
:10521000D1FF3146284600F0F6FD46A947AB201DD8
:10522000CDE90231019045AA001D0492009005AB22
:1052300010A23146284600F001FD4799A1F26C7199
:105240002160062805D013A0FFF7A2FB002048B07C
:1052500070BD05A8FAF7CBFF0146224605A8FEF768
:1052600081F920B110A0FFF793FB0020EFE70120A8
:10527000EDE7000024474E5A44412C25732C25327B
:10528000642C2532642C2534642C2532642C253280
:10529000642A0000474E5A444120706172736520B1
:1052A0006572726F72210000474E5A444120746942
:1052B0006D65207061727365206572726F72210076
:1052C00070B5CEB005460E46144680212046FAF74A
:1052D00071FF3146284600F096FD04F1680204F1A2
:1052E0006003CDE9093204F1780004F17001CDE9E1
:1052F0000B10203A203BCDE9053220382039CDE98A
:105300000710183A183BCDE901321C38011FCDE9CE
:1053100003101C3800900EAB0EA23146284600F058
:105320008DFC0E2805D018A0FFF732FB00204EB0F0
:1053300070BD0EA8FAF75BFF014622460EA8FEF7E5
:1053400011F920B115A0FFF723FB0020EFE70120A2
:10535000EDE700002447504747412C25732C256674
:105360002C25432C25662C25432C25642C25642CC8
:1053700025662C25662C25432C25662C25432C25BB
:10538000662C25642A000000475047474120706181
:10539000727365206572726F722100004750474733
:1053A000412074696D652070617273652065727249
:1053B0006F72210070B590B005460E461446B821B4
:1053C0002046FAF7F7FE3146284600F01CFD04F1AE
:1053D000B00004F1A801CDE90E108038011F04F1DE
:1053E000A00204F13403CDE90C320A1FCDE90A1002
:1053F0001038011F131FCDE908320A1FCDE906102E
:105400001038131F011FCDE904320A1F231DCDE9F7
:105410000032CDE90210234607A23146284600F0AB
:105420000DFC112805D013A0FFF7B2FA002010B030
:1054300070BD0120FBE700002447504753412C2555
:10544000432C25642C25642C25642C25642C256490
:105450002C25642C25642C25642C25642C25642C97
:1054600025642C25642C25642C25662C25662C258A
:10547000662A0000475047534120706172736520CF
:105480006572726F7221000070B592B005460E46CB
:1054900014465C212046FAF78DFE3146284600F07E
:1054A000B2FC04F15800011F0A1FCDE91010143896
:1054B00004F14803011FCDE90E320A1FCDE90C109B
:1054C0001438143B011FCDE90A320A1FCDE9081038
:1054D0001438143B011FCDE906320A1FCDE9041030
:1054E000143B1438211DCDE90232CDE900102346CA
:1054F0000E4A3146284600F0A1FB6168491E89002A
:10550000A2680B1D9A4201DA511A00E0042103221D
:1055100002EB8101884201DB132805DD04A0FFF7BF
:1055200037FA002012B070BD0120FBE7E0670008E9
:105530004750475356207061727365206572726FD1
:105540007221000070B5CEB005460E4614466021AB
:105550002046FAF72FFE3146284600F054FC04F1AD
:105560005002CDE9094204F15900411ECDE90B106A
:10557000083A04F14003CDE90532201D011DCDE9B3
:105580000710203A203BCDE9013234302831CDE9F3
:1055900003101C3800900EAB10A23146284600F0D4
:1055A0004DFB0D2807D00E2805D019A0FFF7F0F904
:1055B00000204EB070BD0EA8FAF719FE0146224633
:1055C0000EA8FDF7CFFF20B116A0FFF7E1F90020EC
:1055D000EFE72068643020600120EAE7244750525A
:1055E0004D432C25732C25432C25662C25432C2537
:1055F000662C25432C25662C25662C253264253205
:10560000642532642C25662C25432C25432A000072
:105610004750524D43207061727365206572726FFE
:10562000722100004750524D432074696D6520700F
:1056300061727365206572726F722100FEB5054656
:105640000E461446002222606260A260314628465F
:1056500000F0D9FB0A4904F10802CDE90121201D1F
:105660000090234607A23146284600F0E7FA0428B6
:1056700004D00AA0FFF78CF90020FEBD0120FEBD7A
:10568000F60F00202447505458542C2532642C2502
:1056900032642C2532642C25732A0000475054585C
:1056A00054207061727365206572726F7221000000
:1056B00070B588B005460E46144640212046FAF7DC
:1056C00079FD3146284600F09EFB04F1280204F1E2
:1056D0002003CDE9033204F1380004F13001CDE9B3
:1056E00005102039203ACDE90021203802902346C8
:1056F00010A23146284600F0A1FA082805D015A0CE
:10570000FFF746F9002008B070BD207A54280AD16E
:10571000207E4D2807D194F828004E2803D194F814
:1057200038004B2804D010A0FFF732F90020EAE738
:105730000120E8E72447505654472C25662C254382
:105740002C25662C25432C25662C25432C25662CE0
:1057500025432A00475056544720706172736520D4
:105760006572726F72210000475056544720706175
:10577000727365206572726F722028666F726D6138
:1057800074206572726F722921000000002101618E
:105790000120704770B50546002600F04BFAC4683A
:1057A000FF2C01DC4FF4807414212846FAF702FD27
:1057B0002046FEF737FCA86018B1EC6001263046A1
:1057C00070BD02A0FFF7E4F8F9E70000496E7375B9
:1057D0006666696369656E74206D656D6F727921A7
:1057E0000000000010B5024600241068002809D00F
:1057F00043680B6004688168116009B90021516039
:10580000FEF7CAFA204610BD2DE9F041074688464A
:1058100014460026FD68A54200DB25462A4641467F
:10582000384600F007F80644641B002CF2D13046DD
:10583000BDE8F0812DE9F84F05460B4614460026D9
:105840002869E9682044884202DB2846FFF79EFF6A
:105850002969A868224608441946FAF792FC286983
:10586000204428614FF4805A002728696A46811B2A
:10587000A8683044FFF7ABF880465FEA080023D001
:10588000009800287EDB2869AA68811B701C491ECD
:105890001044FFF727F983460C20FEF7C3FB041ED4
:1058A00071D06760BBF1400F6ED01FDCBBF1080FF9
:1058B0006BD014DCBBF1010F52D0BBF1020F71D0E1
:1058C000BBF1040F6DD18CE036B12869821B2A61CF
:1058D000A8688119FAF755FC3046BDE8F88FBBF18E
:1058E000100F7AD0BBF1200FECD163E14FF4806947
:1058F000CB4573D01CDCBBF1800F70D04FF48079A6
:10590000CB456DD04FF40079CB45DBD14020FEF77D
:1059100089FB60600028C3D0C4F80090A9680246E3
:105920008B1941461846FFF71DFB002874D05EE135
:105930004FF40069CB4570D0D345C3D18020FEF72A
:1059400071FB60600028ABD0C4F800A0A9680246D3
:105950008B1941461846FFF78BFA002879D046E1AB
:105960008020FEF75FFB6060002899D00121216054
:10597000A96802468B1941461846FFF7A1FC00288A
:10598000D5D103E03CE1FBE0E1E047E0606810B125
:10599000FEF702FA67602046FEF7FEF9002426E1D2
:1059A00000E020E1B820FEF73DFB60600028B2D0A7
:1059B00002212160A96802468B1941461846FFF76B
:1059C000F9FC0028B3D1606810B1FEF7E5F9676013
:1059D0002046FEF7E1F9002409E13BE07AE0D0E05F
:1059E00092E05C20FEF71EFB6060002893D004214B
:1059F0002160A96802468B1941461846FFF744FD0D
:105A0000002894D1606810B1FEF7C6F9676020469F
:105A1000FEF7C2F90024EAE08FE040E06020FEF7E4
:105A200001FB606000288ED008212160A968024631
:105A30008B1941461846FFF785FD00288FD1606815
:105A400010B1FEF7A9F967602046FEF7A5F900241A
:105A5000CDE01AE04020FEF7E5FA6060002884D02F
:105A600010212160A96802468B1941461846FFF7AC
:105A70001FFE002808D1606810B1FEF78DF967603D
:105A80002046FEF789F90024B1E0606810B1FEF706
:105A900083F967602046FEF77FF90024A7E06020C5
:105AA000FEF7C0FA606000286AD0C4F80090A968C8
:105AB00002468B1941461846FFF7B4FA002808D170
:105AC000606810B1FEF768F967602046FEF764F978
:105AD00000248CE04020FEF7A5FA606000284FD03B
